{
  "_format": "hh-sol-artifact-1",
  "contractName": "Hub",
  "sourceName": "contracts/Hub.sol",
  "abi": [
    {
      "anonymous": false,
      "inputs": [
        {
          "indexed": true,
          "internalType": "bytes32",
          "name": "contentId",
          "type": "bytes32"
        },
        {
          "indexed": false,
          "internalType": "string",
          "name": "contentUri",
          "type": "string"
        }
      ],
      "name": "ContentAdded",
      "type": "event"
    },
    {
      "anonymous": false,
      "inputs": [
        {
          "indexed": true,
          "internalType": "bytes32",
          "name": "contentId",
          "type": "bytes32"
        },
        {
          "indexed": false,
          "internalType": "string",
          "name": "contentUri",
          "type": "string"
        }
      ],
      "name": "ContentUpdated",
      "type": "event"
    },
    {
      "anonymous": false,
      "inputs": [
        {
          "indexed": true,
          "internalType": "uint256",
          "name": "noteId",
          "type": "uint256"
        },
        {
          "indexed": true,
          "internalType": "address",
          "name": "owner",
          "type": "address"
        },
        {
          "indexed": false,
          "internalType": "bytes32",
          "name": "contentId",
          "type": "bytes32"
        }
      ],
      "name": "NoteCreated",
      "type": "event"
    },
    {
      "inputs": [
        {
          "internalType": "string",
          "name": "_contentUri",
          "type": "string"
        }
      ],
      "name": "createNote",
      "outputs": [],
      "stateMutability": "nonpayable",
      "type": "function"
    },
    {
      "inputs": [
        {
          "internalType": "bytes32",
          "name": "_contentId",
          "type": "bytes32"
        }
      ],
      "name": "getContent",
      "outputs": [
        {
          "internalType": "string",
          "name": "",
          "type": "string"
        }
      ],
      "stateMutability": "view",
      "type": "function"
    },
    {
      "inputs": [
        {
          "internalType": "uint256",
          "name": "_noteId",
          "type": "uint256"
        }
      ],
      "name": "getNote",
      "outputs": [
        {
          "components": [
            {
              "internalType": "uint256",
              "name": "noteId",
              "type": "uint256"
            },
            {
              "internalType": "address",
              "name": "owner",
              "type": "address"
            },
            {
              "internalType": "bytes32",
              "name": "contentId",
              "type": "bytes32"
            }
          ],
          "internalType": "struct Hub.Note",
          "name": "",
          "type": "tuple"
        }
      ],
      "stateMutability": "view",
      "type": "function"
    },
    {
      "inputs": [],
      "name": "getNotes",
      "outputs": [
        {
          "components": [
            {
              "internalType": "uint256",
              "name": "noteId",
              "type": "uint256"
            },
            {
              "internalType": "address",
              "name": "owner",
              "type": "address"
            },
            {
              "internalType": "bytes32",
              "name": "contentId",
              "type": "bytes32"
            }
          ],
          "internalType": "struct Hub.Note[]",
          "name": "",
          "type": "tuple[]"
        }
      ],
      "stateMutability": "view",
      "type": "function"
    },
    {
      "inputs": [
        {
          "internalType": "uint256",
          "name": "_noteId",
          "type": "uint256"
        },
        {
          "internalType": "string",
          "name": "_contentUri",
          "type": "string"
        }
      ],
      "name": "updateNote",
      "outputs": [],
      "stateMutability": "nonpayable",
      "type": "function"
    }
  ],
  "bytecode": "0x608060405234801561001057600080fd5b506108bc806100206000396000f3fe608060405234801561001057600080fd5b50600436106100575760003560e01c806349781ef91461005c5780635cc1500114610071578063a965a9411461009a578063b4af200d146100ba578063e1250ab4146100cf575b600080fd5b61006f61006a3660046106a9565b6100e2565b005b61008461007f366004610651565b6101c9565b604051610091919061079b565b60405180910390f35b6100ad6100a8366004610651565b61026b565b60405161009191906107ee565b6100c26102bd565b6040516100919190610715565b61006f6100dd366004610669565b6103ef565b60405133906000906100fa908590859060200161076c565b60408051808303601f1901815282825280516020918201206060840183528884526001600160a01b0386811683860181815286860184815260009283528286528683208d84528652868320975188559051600180890180546001600160a01b0319169290951691909117909355516002909601959095558185529091529120909150610187908585610551565b50807ffb281bb05c5ef4b3a5f374fffc0b351fe69873776a9d6c289682e1929cb4f08085856040516101ba92919061076c565b60405180910390a25050505050565b60008181526001602052604090208054606091906101e69061081a565b80601f01602080910402602001604051908101604052809291908181526020018280546102129061081a565b801561025f5780601f106102345761010080835404028352916020019161025f565b820191906000526020600020905b81548152906001019060200180831161024257829003601f168201915b50505050509050919050565b6102736105d5565b50336000908152602081815260408083209383529281529082902082516060810184528154815260018201546001600160a01b031692810192909252600201549181019190915290565b33600081815260026020526040812054606092918167ffffffffffffffff8111156102f857634e487b7160e01b600052604160045260246000fd5b60405190808252806020026020018201604052801561033157816020015b61031e6105d5565b8152602001906001900390816103165790505b50905060005b828110156103e7576001600160a01b038416600090815260208190526040812081610363846001610802565b8152602080820192909252604090810160002081516060810183528154815260018201546001600160a01b03169381019390935260028101549183019190915284519092508490849081106103c857634e487b7160e01b600052603260045260246000fd5b60200260200101819052505080806103df90610855565b915050610337565b509250505090565b6040513390600090610407908590859060200161076c565b60408051601f1981840301815291815281516020928301206001600160a01b0385166000908152600290935290822054909250610445906001610802565b6001600160a01b03848116600081815260026020818152604080842087905580516060810182528781528083018681528183018b815296865285845282862089875284528286209151825551600180830180546001600160a01b03191692909916919091179097559451949092019390935586825292909152209091506104cd908686610551565b50817ffb281bb05c5ef4b3a5f374fffc0b351fe69873776a9d6c289682e1929cb4f080868660405161050092919061076c565b60405180910390a2826001600160a01b0316817fdba4665203a44d097040c71e65ed36d5fdb7931dc87a6fc89b8b16b4ed3d98fd846040516105429190610763565b60405180910390a35050505050565b82805461055d9061081a565b90600052602060002090601f01602090048101928261057f57600085556105c5565b82601f106105985782800160ff198235161785556105c5565b828001600101855582156105c5579182015b828111156105c55782358255916020019190600101906105aa565b506105d19291506105f5565b5090565b604080516060810182526000808252602082018190529181019190915290565b5b808211156105d157600081556001016105f6565b60008083601f84011261061b578182fd5b50813567ffffffffffffffff811115610632578182fd5b60208301915083602082850101111561064a57600080fd5b9250929050565b600060208284031215610662578081fd5b5035919050565b6000806020838503121561067b578081fd5b823567ffffffffffffffff811115610691578182fd5b61069d8582860161060a565b90969095509350505050565b6000806000604084860312156106bd578081fd5b83359250602084013567ffffffffffffffff8111156106da578182fd5b6106e68682870161060a565b9497909650939450505050565b805182526020808201516001600160a01b031690830152604090810151910152565b6020808252825182820181905260009190848201906040850190845b81811015610757576107448385516106f3565b9284019260609290920191600101610731565b50909695505050505050565b90815260200190565b60006020825282602083015282846040840137818301604090810191909152601f909201601f19160101919050565b6000602080835283518082850152825b818110156107c7578581018301518582016040015282016107ab565b818111156107d85783604083870101525b50601f01601f1916929092016040019392505050565b606081016107fc82846106f3565b92915050565b6000821982111561081557610815610870565b500190565b60028104600182168061082e57607f821691505b6020821081141561084f57634e487b7160e01b600052602260045260246000fd5b50919050565b600060001982141561086957610869610870565b5060010190565b634e487b7160e01b600052601160045260246000fdfea26469706673582212200c2b93c07996b8a24bc5df79391b81fd389abf82b0c95715dc8aa703025a75b064736f6c63430008000033",
  "linkReferences": {},
  "deployedLinkReferences": {}
}