{
  "_format": "hh-sol-artifact-1",
  "contractName": "Hub",
  "sourceName": "contracts/Hub.sol",
  "abi": [
    {
      "anonymous": false,
      "inputs": [
        {
          "indexed": true,
          "internalType": "bytes32",
          "name": "contentId",
          "type": "bytes32"
        },
        {
          "indexed": false,
          "internalType": "string",
          "name": "contentUri",
          "type": "string"
        }
      ],
      "name": "ContentAdded",
      "type": "event"
    },
    {
      "anonymous": false,
      "inputs": [
        {
          "indexed": true,
          "internalType": "bytes32",
          "name": "contentId",
          "type": "bytes32"
        },
        {
          "indexed": false,
          "internalType": "string",
          "name": "contentUri",
          "type": "string"
        }
      ],
      "name": "ContentUpdated",
      "type": "event"
    },
    {
      "anonymous": false,
      "inputs": [
        {
          "indexed": true,
          "internalType": "uint256",
          "name": "noteId",
          "type": "uint256"
        },
        {
          "indexed": true,
          "internalType": "address",
          "name": "owner",
          "type": "address"
        },
        {
          "indexed": false,
          "internalType": "bytes32",
          "name": "contentId",
          "type": "bytes32"
        }
      ],
      "name": "NoteCreated",
      "type": "event"
    },
    {
      "inputs": [
        {
          "internalType": "string",
          "name": "_contentUri",
          "type": "string"
        }
      ],
      "name": "createNote",
      "outputs": [],
      "stateMutability": "nonpayable",
      "type": "function"
    },
    {
      "inputs": [
        {
          "internalType": "bytes32",
          "name": "_contentId",
          "type": "bytes32"
        }
      ],
      "name": "getContent",
      "outputs": [
        {
          "internalType": "string",
          "name": "",
          "type": "string"
        }
      ],
      "stateMutability": "view",
      "type": "function"
    },
    {
      "inputs": [
        {
          "internalType": "uint256",
          "name": "_noteId",
          "type": "uint256"
        }
      ],
      "name": "getNote",
      "outputs": [
        {
          "components": [
            {
              "internalType": "uint256",
              "name": "noteId",
              "type": "uint256"
            },
            {
              "internalType": "address",
              "name": "owner",
              "type": "address"
            },
            {
              "internalType": "bytes32",
              "name": "contentId",
              "type": "bytes32"
            }
          ],
          "internalType": "struct Hub.Note",
          "name": "",
          "type": "tuple"
        }
      ],
      "stateMutability": "view",
      "type": "function"
    },
    {
      "inputs": [],
      "name": "getNotes",
      "outputs": [
        {
          "components": [
            {
              "internalType": "uint256",
              "name": "noteId",
              "type": "uint256"
            },
            {
              "internalType": "address",
              "name": "owner",
              "type": "address"
            },
            {
              "internalType": "bytes32",
              "name": "contentId",
              "type": "bytes32"
            }
          ],
          "internalType": "struct Hub.Note[]",
          "name": "",
          "type": "tuple[]"
        }
      ],
      "stateMutability": "view",
      "type": "function"
    },
    {
      "inputs": [
        {
          "internalType": "uint256",
          "name": "_noteId",
          "type": "uint256"
        },
        {
          "internalType": "string",
          "name": "_contentUri",
          "type": "string"
        }
      ],
      "name": "updateNote",
      "outputs": [],
      "stateMutability": "nonpayable",
      "type": "function"
    }
  ],
  "bytecode": "0x608060405234801561001057600080fd5b50610965806100206000396000f3fe608060405234801561001057600080fd5b50600436106100575760003560e01c806349781ef91461005c5780635cc1500114610071578063a965a9411461009a578063b4af200d146100ba578063e1250ab4146100cf575b600080fd5b61006f61006a366004610752565b6100e2565b005b61008461007f3660046106fa565b6101c6565b6040516100919190610844565b60405180910390f35b6100ad6100a83660046106fa565b610268565b6040516100919190610897565b6100c26102e0565b60405161009191906107be565b61006f6100dd366004610712565b6104af565b60405133906000906100fa9085908590602001610815565b60408051601f19818403018152918152815160209283012060008181526002909352912090915061012c9085856105fa565b50604080516060810182528681526001600160a01b03848116602080840191825283850186815260008b815260019283905286902094518555915190840180546001600160a01b0319169190931617909155516002909101555181907ffb281bb05c5ef4b3a5f374fffc0b351fe69873776a9d6c289682e1929cb4f080906101b79087908790610815565b60405180910390a25050505050565b60008181526002602052604090208054606091906101e3906108c3565b80601f016020809104026020016040519081016040528092919081815260200182805461020f906108c3565b801561025c5780601f106102315761010080835404028352916020019161025c565b820191906000526020600020905b81548152906001019060200180831161023f57829003601f168201915b50505050509050919050565b61027061067e565b600082815260016020818152604092839020835160608101855281548152928101546001600160a01b031691830191909152600201549181019190915233906102b761067e565b826001600160a01b031682602001516001600160a01b031614156102d85750805b949350505050565b60603360006102ee816105ed565b905060008060005b83811015610359576001600160a01b0385166001600061031684836108ab565b81526020810191909152604001600020600101546001600160a01b03161415610347576103446001846108ab565b92505b80610351816108fe565b9150506102f6565b5060008267ffffffffffffffff81111561038357634e487b7160e01b600052604160045260246000fd5b6040519080825280602002602001820160405280156103bc57816020015b6103a961067e565b8152602001906001900390816103a15790505b50905060005b848110156104a5576001600160a01b038616600160006103e284836108ab565b81526020810191909152604001600020600101546001600160a01b0316141561049357600060018161041484836108ab565b8152602080820192909252604090810160002081516060810183528154815260018201546001600160a01b031693810193909352600281015491830191909152845190925084908690811061047957634e487b7160e01b600052603260045260246000fd5b602090810291909101015261048f6001856108ab565b9350505b8061049d816108fe565b9150506103c2565b5094505050505090565b6104b960006105f1565b60405133906000906104d19085908590602001610815565b60405160208183030381529060405280519060200120905060006104f560006105ed565b60008381526002602052604090209091506105119086866105fa565b50604080516060810182528281526001600160a01b038581166020808401918252838501878152600087815260019283905286902094518555915190840180546001600160a01b0319169190931617909155516002909101555182907ffb281bb05c5ef4b3a5f374fffc0b351fe69873776a9d6c289682e1929cb4f0809061059c9088908890610815565b60405180910390a2826001600160a01b0316817fdba4665203a44d097040c71e65ed36d5fdb7931dc87a6fc89b8b16b4ed3d98fd846040516105de919061080c565b60405180910390a35050505050565b5490565b80546001019055565b828054610606906108c3565b90600052602060002090601f016020900481019282610628576000855561066e565b82601f106106415782800160ff1982351617855561066e565b8280016001018555821561066e579182015b8281111561066e578235825591602001919060010190610653565b5061067a92915061069e565b5090565b604080516060810182526000808252602082018190529181019190915290565b5b8082111561067a576000815560010161069f565b60008083601f8401126106c4578182fd5b50813567ffffffffffffffff8111156106db578182fd5b6020830191508360208285010111156106f357600080fd5b9250929050565b60006020828403121561070b578081fd5b5035919050565b60008060208385031215610724578081fd5b823567ffffffffffffffff81111561073a578182fd5b610746858286016106b3565b90969095509350505050565b600080600060408486031215610766578081fd5b83359250602084013567ffffffffffffffff811115610783578182fd5b61078f868287016106b3565b9497909650939450505050565b805182526020808201516001600160a01b031690830152604090810151910152565b6020808252825182820181905260009190848201906040850190845b81811015610800576107ed83855161079c565b92840192606092909201916001016107da565b50909695505050505050565b90815260200190565b60006020825282602083015282846040840137818301604090810191909152601f909201601f19160101919050565b6000602080835283518082850152825b8181101561087057858101830151858201604001528201610854565b818111156108815783604083870101525b50601f01601f1916929092016040019392505050565b606081016108a5828461079c565b92915050565b600082198211156108be576108be610919565b500190565b6002810460018216806108d757607f821691505b602082108114156108f857634e487b7160e01b600052602260045260246000fd5b50919050565b600060001982141561091257610912610919565b5060010190565b634e487b7160e01b600052601160045260246000fdfea2646970667358221220a781a6bba0d4adf0b27774db111c0f296aab8d9417997073df150de7b0558f6e64736f6c63430008000033",
  "linkReferences": {},
  "deployedLinkReferences": {}
}